:100000000C9461000C947E000C947E000C947E0095
:100010000C947E000C947E000C947E000C947E0068
:100020000C947E000C947E000C947E000C94C9000D
:100030000C947E000C947E000C947E000C94B10015
:100040000C947E000C947E000C947E000C947E0038
:100050000C947E000C947E000C947E000C947E0028
:100060000C947E000C947E0008000000BE9224498F
:10007000123EABAAAA2ABECDCCCC4C3E00000080DA
:10008000BEABAAAAAA3E00000000BF000000803F4D
:100090000000000000084178D3BB4387D1133D190D
:1000A0000E3CC3BD4282AD2B3E68EC8276BED98F3A
:1000B000E1A93E4C80EFFFBE01C4FF7F3F0000007E
:1000C000000011241FBECFEFD8E0DEBFCDBF11E08E
:1000D000A0E0B1E0E6E2FAE002C005900D92A631A0
:1000E000B107D9F721E0A6E1B1E001C01D92A03827
:1000F000B207E1F70E9429010C9411050C9400004D
:100100008AB1846F8AB9209A8BB180668BB9EAE78D
:10011000F0E080818768808384B5836A84BD8091A4
:1001200072019091730188BD809174019091750165
:1001300087BDEEE6F0E080818460808385B58160D4
:1001400085BD89EF90E09093890080938800EFE669
:10015000F0E08081826080838BE0809381007894DE
:1001600008951F920F920FB60F9211248F939F93B1
:10017000809172019091730188BD8091740190917A
:10018000750187BD9F918F910F900FBE0F901F90AB
:1001900018951F920F920FB60F9211248F939F9371
:1001A000AF93BF938091160190911701A091180110
:1001B000B0911901892B8A2B8B2B99F08091160114
:1001C00090911701A0911801B09119010197A1090F
:1001D000B1098093160190931701A0931801B09371
:1001E0001901BF91AF919F918F910F900FBE0F900A
:1001F0001F9018958BB180698BB95A9828980895EB
:100200000E94FA0060916C0170916D01660F771F7A
:10021000072E000C880B990B0E9428030E94BC0338
:1002200021E73DE34FEA51E40E9404042DEA39E658
:100230004EE15EE30E9484020E94F002709373011B
:100240006093720182E890E090937501809374014D
:1002500008950E9480000E9472020E94FA0089E1C3
:1002600090E090936D0180936C010E940001FFCF9C
:10027000CF93C82F873069F420917E0130917F01A0
:1002800047E050E061E070E08EE091E00E94A6045B
:100290000CC08A3019F48DE00E943801E0ECF0E0E7
:1002A000808185FFFDCFC093C60080E090E0CF91B4
:1002B00008956F927F928F929F92AF92BF92CF924A
:1002C000DF92EF92FF920F931F93CF93DF932091D2
:1002D0006A0130916B01232B09F0DAC08C010F2EDB
:1002E000FAE18F2EF1E09F2EF02DC0ECD0E00F2E22
:1002F000F6ECCF2ED12CF02D54010F2EF9E16F2EFC
:10030000F1E07F2EF02D88818823ECF7888184FD31
:10031000D2C0888183FDD2C0F60180818D3011F07A
:100320008A3069F48AE0F4018083B8010E943801C0
:100330008AE191E090936B0180936A01A9C08930B2
:1003400039F090EE980F9F3520F0803AB8F001C058
:1003500080E2F9E68F16F1E09F0629F4B80187E004
:100360000E943801D0CF74019FEFE91AF90AF40115
:100370008083B8010E9438014701C5CF8231D1F195
:1003800030F4833009F49DC08830E9F0BCCF873168
:1003900029F08F37C1F0853179F0B5CFFAE18F16AA
:1003A000F1E09F0609F008F4AECFF40131978081A7
:1003B000803209F052C0A7CF8AE1881681E0980602
:1003C00009F098F5A0CF9AE1891691E0990609F015
:1003D00008F499CFB80188E00E943801B80180E2A2
:1003E0000E943801B80188E00E943801E1E08E1ACD
:1003F000910889CFB8018DE00E943801FAE18F168B
:10040000F1E09F0609F008F47ECF0F2EFAE1EF2EFF
:10041000F1E0FF2EF02DB801F70181917F010E94DC
:1004200038018E149F04B9F76ECFB80188E00E949E
:100430003801B80180E20E943801B80188E00E94CA
:100440003801F1E08F1A91088AE1881681E0980658
:1004500061F7F30131964F0156CF7401F1E0EF1AC5
:10046000F108B80188E00E943801B80180E20E94DA
:100470003801B80188E00E9438014701EA14FB0402
:1004800009F441CFF70182917F01803251F73BCFD0
:10049000E0916A01F0916B01CF01019690936B019D
:1004A00080936A0180818A3021F410926B0110924E
:1004B0006A0190E008C08EEF9FEF05C08FEF9FEFBD
:1004C00002C08FEF9FEFDF91CF911F910F91FF90AF
:1004D000EF90DF90CF90BF90AF909F908F907F90E4
:1004E0006F90089587E68093C40088E18093C100EF
:1004F000EAE7F1E080E091E0938382839183808357
:100500009583848308955058BB27AA270E949B0295
:100510000C947A030E946C0338F00E94730320F05D
:1005200039F49F3F19F426F40C9469030EF4E09516
:10053000E7FB0C946303E92F0E948B0358F3BA176F
:10054000620773078407950720F079F4A6F50C94E9
:10055000AD030EF4E0950B2EBA2FA02D0B01B901BF
:1005600090010C01CA01A0011124FF27591B99F029
:10057000593F50F4503E68F11A16F040A22F232F35
:10058000342F4427585FF3CF469537952795A79585
:10059000F0405395C9F77EF41F16BA0B620B730B2C
:1005A000840BBAF09150A1F0FF0FBB1F661F771F9D
:1005B000881FC2F70EC0BA0F621F731F841F48F452
:1005C000879577956795B795F7959E3F08F0B0CFDB
:1005D0009395880F08F09927EE0F979587950895C2
:1005E0000E94F7026894B1110C94AE0308950E9422
:1005F000930388F09F5798F0B92F9927B751B0F01F
:10060000E1F0660F771F881F991F1AF0BA95C9F796
:1006100014C0B13091F00E94AD03B1E008950C9484
:10062000AD03672F782F8827B85F39F0B93FCCF337
:10063000869577956795B395D9F73EF49095809513
:10064000709561957F4F8F4F9F4F0895E89409C033
:1006500097FB3EF490958095709561957F4F8F4FF5
:100660009F4F9923A9F0F92F96E9BB279395F6950B
:10067000879577956795B795F111F8CFFAF4BB0F89
:1006800011F460FF1BC06F5F7F4F8F4F9F4F16C0ED
:10069000882311F096E911C0772321F09EE8872F77
:1006A000762F05C0662371F096E8862F70E060E033
:1006B0002AF09A95660F771F881FDAF7880F9695AC
:1006C000879597F9089597F99F6780E870E060E053
:1006D00008959FEF80EC089500240A9416161706DB
:1006E00018060906089500240A9412161306140623
:1006F00005060895092E0394000C11F4882352F086
:10070000BB0F40F4BF2B11F460FF04C06F5F7F4F3D
:100710008F4F9F4F089557FD9058440F551F59F024
:100720005F3F71F04795880F97FB991F61F09F3FDE
:1007300079F087950895121613061406551FF2CF07
:100740004695F1DF08C0161617061806991FF1CF57
:1007500086957105610508940895E894BB2766277E
:100760007727CB0197F9089516F00C9471040C9437
:10077000690368940C9463030E949303A8F399237C
:10078000C1F3AEF3DF93CF931F930F93FF92C92F63
:10079000DD2788232AF02197660F771F881FDAF755
:1007A00020E030E040E85FEB9FE3883920F0803EB6
:1007B00038F021968F770E948402E8E6F0E004C0CA
:1007C0000E948402E5E9F0E00E947F048B01BE01F3
:1007D000EC01FB2E6F5771097595771F880B990BEC
:1007E0000E94280328E132E741E35FE30E941704F7
:1007F000AF2D9801AE01FF900F911F91CF91DF9126
:100800000E949B020C947A030E9417040C947A03B2
:100810000E946C0338F00E94730320F0952311F0BE
:100820000C9463030C94690311240C94AE030E948E
:100830008B0370F3959FC1F3950F50E0551F629F96
:10084000F001729FBB27F00DB11D639FAA27F00D29
:10085000B11DAA1F649F6627B00DA11D661F829F50
:100860002227B00DA11D621F739FB00DA11D621F35
:10087000839FA00D611D221F749F3327A00D611D52
:10088000231F849F600D211D822F762F6A2F112434
:100890009F5750409AF0F1F088234AF0EE0FFF1F67
:1008A000BB1F661F771F881F91505040A9F79E3FBE
:1008B000510580F00C9463030C94AE035F3FE4F3A6
:1008C000983ED4F3869577956795B795F795E79514
:1008D0009F5FC1F7FE2B880F911D9695879597F91D
:1008E00008959F3F31F0915020F487957795679553
:1008F000B795880F911D9695879597F90895DF9381
:10090000CF931F930F93FF92EF92DF927B018C01A5
:10091000689406C0DA2EEF010E941704FE01E894E5
:10092000A5912591359145915591A6F3EF010E942E
:100930009B02FE019701A801DA9469F7DF90EF901E
:10094000FF900F911F91CF91DF910895A0E0B0E04B
:10095000ECEAF4E00C94E0045B014A017901D9016E
:1009600013962C9121FF1DC0C0E0D0E0C815D90519
:10097000D9F08C016C01CA0CDB1CC8010C151D05DB
:1009800071F00F5F1F4FD7011896ED91FC911997E9
:10099000B701DC018C910995892B79F305C021966B
:1009A000E5CF80E090E001C0CE01CDB7DEB7ECE04E
:1009B0000C94FC042F923F924F925F926F927F9221
:1009C0008F929F92AF92BF92CF92DF92EF92FF925F
:1009D0000F931F93CF93DF93CDB7DEB7CA1BDB0B0B
:1009E0000FB6F894DEBF0FBECDBF09942A883988B0
:1009F00048885F846E847D848C849B84AA84B984B7
:100A0000C884DF80EE80FD800C811B81AA81B981C2
:100A1000CE0FD11D0FB6F894DEBF0FBECDBFED01D6
:060A20000895F894FFCFD9
:100A260000000003000000003801590100002A728E
:060A3600696E672A0A0048
:00000001FF
